Megan Skrypek
ms4985

coms w4180

Programming Assignment 3

Problem 1

a.
prog1
C 
By inspecting the strings output and noticing these strings:
GCC: (GNU) 4.8.3 20140911 (Red Hat 4.8.3-7)
GCC_3.0
indicating the gcc compiler is used

prog2
C 
By inspecting the strings output and noticing these strings:
GCC: (GNU) 4.8.3 20140911 (Red Hat 4.8.3-7)
GCC_3.0
indicating the gcc compiler is used

prog3
C++ 
By inspecting the strings output and noticing this string:
GLIBCXX_3.4
indicating the g++ compiler is used

prog4
Objective C
By inspecting the strings output and noticing these strings:
GCC: (GNU) 4.8.3 20140911
GCC_3.@GLIB
which suggests a C compiler but the executable shares very little with progs1-3 which suggests it is not written in C/C++ but still uses gnu

prog5
Java
By inspecting the strings output and noticing these strings:
java/io/PrintStream
java/lang/Integer
java/lang/Math
java/lang/Object
java/lang/StringBuilder
java/lang/System
java/util/ArrayList
java/util/Collections
java/util/List
indicating presence of java lang packages

prog6
python
By inspecting the strings output and noticing these strings:
/usr/lib/python2.7/site-packages/scapy/layers/ntp.pyR
/usr/lib/python2.7/site-packages/scapy/layers/ntp.pyR
/usr/lib/python2.7/site-packages/scapy/layers/ntp.pyR
indicating presence of python packages

b.
prog1 matches list.txt:prog2 (69)

c.
prog1

1-grams

00 16631
48 3359
ff 3146
5f 1730
89 1710
45 1572
53 1026
74 1019
8b 888
e8 868
61 850
49 702
72 683
c7 659
40 658
8d 619
65 550
69 537
31 476
63 473

2-grams slide 1

0000 12375
ffff 1670
4889 1597
488b 810
ff48 759
89c7 581
c7e8 581
488d 532
8b45 477
4000 439
5374 406
0048 401
4953 322
005f 316
8d85 291
7249 288
5f5a 270
4545 245
0d00 236
0800 229

2-grams slide 2

0000 6506
ffff 1007
4889 819
488b 459
4000 376
ff48 371
c7e8 307
488d 274
89c7 274
5374 216
0d00 210
8b45 203
0048 195
2200 191
0800 185
0e10 166
0041 165
430d 164
8602 164
1c00 160

3-grams slide 1

000000 9485
ffff48 734
89c7e8 581
4889c7 577
488b45 470
ff4889 333
400000 328
488d85 291
000048 277
005f5a 268
ffffff 249
ff488d 234
080000 226
feffff 221
000d00 208
004889 206
5f5a4e 204
000022 188
002200 187
22000d 183

3-grams slide 3

000000 3239
ffff48 240
000d00 207
4889c7 189
000022 187
89c7e8 173
488b45 159
ff4889 122
488d85 102
000048 91
005f5a 90
080000 77
5f5a4e 75
004889 74
feffff 72
ffffff 71
ff488d 68
000012 65
697249 61
48897d 61

prog2

1-grams

00 16916
48 2778
ff 2472
5f 1728
89 1481
45 1407
53 1031
74 1022
61 841
e8 745
8b 709
49 709
72 677
40 577
65 543
69 535
c7 528
31 480
63 465
73 451

2-grams slide 1

0000 12804
4889 1386
ffff 1313
488b 679
ff48 550
89c7 472
c7e8 472
5374 406
4000 397
8b45 377
488d 340
0048 326
4953 322
005f 318
7249 288
5f5a 271
4545 245
0d00 241
0800 224
000d 210

2-grams slide 2

0000 6717
ffff 837
4889 734
488b 399
4000 362
ff48 262
c7e8 253
89c7 219
0d00 215
5374 201
2200 191
0800 181
005f 175
0e10 167
0041 166
430d 165
488d 165
8602 165
4953 162
1c00 162

3-grams slide 1

000000 9967
ffff48 540
89c7e8 472
4889c7 468
488b45 368
400000 329
005f5a 269
000048 241
ff4889 240
080000 222
000d00 210
5f5a4e 204
ffffff 195
488d85 193
000022 188
002200 187
22000d 183
537434 176
746f72 173
697249 171

3-grams slide 3

000000 3409
ffff48 187
002200 187
4889c7 169
89c7e8 149
488b45 123
001200 112
005f5a 83
000048 82
5f5a4e 78
080000 77
ff4889 73
fdffff 63
4889e5 62
746f72 61
860243 59
48897d 59
410e10 59
ffffff 58
743470 58

prog3

1-grams

00 19211
48 2902
ff 2304
5f 1857
89 1612
45 1439
74 1012
8b 841
e8 826
53 797
65 743
61 684
49 667
40 634
c7 615
69 602
72 589
6f 523
63 489
6e 455

2-grams slide 1

0000 14818
4889 1489
ffff 1231
488b 751
89c7 547
c7e8 546
8b45 477
4000 475
0048 399
ff48 338
005f 313
6f72 265
5f5a 262
4545 244
0d00 243
0800 237
5374 234
f848 227
488d 220
000d 218

2-grams slide 2

0000 7730
ffff 801
4889 735
488b 440
4000 402
c7e8 276
89c7 271
0d00 217
0048 214
8b45 207
2200 196
0800 185
0041 176
0e10 176
430d 174
8602 174
ff48 167
1c00 166
005f 162
5548 151

3-grams slide 1

000000 11807
4889c7 546
89c7e8 546
488b45 456
400000 344
ffff48 338
005f5a 262
000048 251
080000 235
000d00 217
746f72 210
000022 197
004889 194
ffffff 193
002200 192
1c0000 187
5f5a4e 187
22000d 187
4889e5 178
0c0708 177

3-grams slide 3

000000 3968
89c7e8 212
002200 191
4889c7 176
488b45 149
ffff48 111
000048 91
005f5a 91
080000 74
001200 69
004889 68
746f72 68
ffffff 66
02430d 64
4889e5 64
5f5a4e 64
0e1086 64
000041 59
1c0000 59
070800 59

prog4

1-grams

00 515
17 293
07 230
ff 194
5f 186
01 181
10 175
20 174
08 169
1f 163
48 162
03 159
b0 154
02 150
0c 144
0f 144
2f 139
06 138
04 137
40 137

2-grams slide 1

0000 214
3c97 25
ffff 21
4dd3 18
0200 17
344d 16
4000 15
699a 14
d334 14
0002 13
973c 13
ff17 13
ff0f 13
830c 12
2083 12
a669 12
1414 11
0040 10
4889 10
6017 9

2-grams slide 2

0000 117
3c97 24
0200 12
4000 10
4dd3 9
ffff 9
699a 8
2083 8
0100 7
6572 7
070f 7
d334 7
4889 7
ff17 7
011b 6
6017 6
830c 6
344d 6
00ff 5
5f76 5

3-grams slide 1

000000 136
3c973c 13
973c97 12
000200 8
d3344d 8
000002 7
004000 7
555058 7
4dd334 7
a6699a 7
ffffff 7
344dd3 7
000040 6
020000 6
400000 6
010000 5
830c32 5
20830c 5
141414 5
000001 4

3-grams slide 3

000000 43
3c973c 5
004000 4
020000 4
a6699a 4
83eefc 4
8b1e48 4
20830c 4
973c97 4
000200 3
555058 3
4dd334 3
699aa6 3
11db8a 3
344dd3 3
41ffd3 3
000040 2
000249 2
904106 2
580f05 2

prog5

1-grams

00 202
61 71
01 48
2f 41
74 34
6e 34
72 29
69 29
6c 28
67 26
6a 24
65 24
76 22
07 19
4c 16
0a 14
0c 13
53 13
6f 13
28 12

2-grams slide 1

0100 45
0000 35
7661 22
6e67 22
6a61 21
6176 21
612f 20
0700 15
616e 15
672f 14
696e 14
6c61 14
2f6c 14
0c00 12
5374 11
4c6a 11
7269 11
0a00 10
7472 10
0001 9

2-grams slide 2

0100 27
0000 17
6176 16
612f 15
6e67 13
0700 12
6c61 11
4c6a 8
696e 8
7472 6
2f53 6
0001 5
0015 5
0b00 5
7269 5
6a61 5
7661 5
0a00 5
6e74 5
0003 4

3-grams slide 1

6a6176 21
617661 21
000000 20
76612f 20
612f6c 14
6c616e 14
2f6c61 14
616e67 14
6e672f 14
4c6a61 11
72696e 11
537472 10
747269 8
000100 8
672f53 8
696e67 8
2f5374 7
3b0100 5
000b00 5
284c6a 5

3-grams slide 3

6a6176 10
612f6c 8
616e67 8
76612f 7
6c616e 5
000000 4
537472 4
2f5374 4
4c6a61 4
3b0100 4
72696e 4
617661 4
673b29 3
010016 3
b10000 2
010000 2
0a000b 2
740100 2
747269 2
2f5072 2

prog6

1-grams

00 1004
74 147
64 121
73 102
65 98
01 89
69 81
02 63
70 58
61 57
2f 56
03 54
72 52
79 45
28 44
6e 43
6c 42
52 41
63 40
04 34

2-grams slide 1

0000 535
0064 86
0300 52
0200 52
0074 49
0100 44
0073 41
0400 31
0052 27
7079 27
0083 25
0500 23
007c 21
0600 20
0800 20
2800 20
0700 19
0028 18
0065 18
6e74 17

2-grams slide 2

0000 271
0064 44
0200 28
0300 24
0074 22
0100 22
0083 18
0400 17
0052 16
0073 15
0500 13
007c 12
7079 12
0800 11
2800 11
0028 10
0900 10
0600 9
7273 9
0700 9

3-grams slide 1

000000 272
000073 41
000074 39
030000 28
000052 25
280000 19
000028 18
040000 17
002800 16
060000 14
740300 14
657273 13
640200 13
740400 13
080000 12
006402 12
010000 12
020000 12
736361 11
007c02 11

3-grams slide 3

000000 96
000073 13
000074 12
000052 10
030000 9
008302 8
006402 8
740300 7
280000 6
002800 6
008400 6
617965 5
006403 5
060000 5
7c0200 5
740700 5
080000 4
617079 4
636170 4
006400 4


Problem 2

a.
scapy:

[root@4180-network-security 4180student]# scapy
INFO: Can't import python gnuplot wrapper . Won't be able to plot.
INFO: Can't import PyX. Won't be able to use psdump() or pdfdump().
WARNING: No route found for IPv6 destination :: (no default route?)
INFO: Can't import python Crypto lib. Won't be able to decrypt WEP.
INFO: Can't import python Crypto lib. Disabled certificate manipulation tools
Welcome to Scapy (2.3.1)
>>> ping = IP(dst="160.39.151.164")/ICMP()
>>> ans = sr1(ping)
Begin emission:
..*Finished to send 1 packets.

Received 3 packets, got 1 answers, remaining 0 packets

tcpdump:

14:22:14.784677 IP (tos 0x0, ttl 64, id 1, offset 0, flags [none], proto ICMP (1), length 28)
    dyn-160-39-150-131.dyn.columbia.edu > dyn-160-39-151-164.dyn.columbia.edu: ICMP echo request, id 0, seq 0, length 8
	0x0000:  28cf daeb fb30 0800 2702 9a1d 0800 4500  (....0..'.....E.
	0x0010:  001c 0001 0000 4001 0c6a a027 9683 a027  ......@..j.'...'
	0x0020:  97a4 0800 f7ff 0000 0000                 ..........

14:22:14.784889 IP (tos 0x0, ttl 64, id 31391, offset 0, flags [none], proto ICMP (1), length 28)
    dyn-160-39-151-164.dyn.columbia.edu > dyn-160-39-150-131.dyn.columbia.edu: ICMP echo reply, id 0, seq 0, length 8
	0x0000:  0800 2702 9a1d 28cf daeb fb30 0800 4500  ..'...(....0..E.
	0x0010:  001c 7a9f 0000 4001 91cb a027 97a4 a027  ..z...@....'...'
	0x0020:  9683 0000 ffff 0000 0000 0000 0000 0000  ................
	0x0030:  0000 0000 0000 0000 0000 0000            ............

b.
From wireshark data:

No.     Time           Source                Destination           Protocol Length Info
    132 1.086949000    160.39.151.164        216.34.181.60         HTTP     819    GET /sflogo.php?group_id=156390&type=2 HTTP/1.1 

Frame 132: 819 bytes on wire (6552 bits), 819 bytes captured (6552 bits) on interface 3
Ethernet II, Src: Apple_eb:fb:30 (28:cf:da:eb:fb:30), Dst: CiscoInc_9f:f0:00 (00:00:0c:9f:f0:00)
Internet Protocol Version 4, Src: 160.39.151.164 (160.39.151.164), Dst: 216.34.181.60 (216.34.181.60)
Transmission Control Protocol, Src Port: 65206 (65206), Dst Port: 80 (80), Seq: 1, Ack: 1, Len: 753
Hypertext Transfer Protocol
    GET /sflogo.php?group_id=156390&type=2 HTTP/1.1\r\n
    Host: sourceforge.net\r\n
    Connection: keep-alive\r\n
    Accept: image/webp,image/*,*/*;q=0.8\r\n
    User-Agent: Mozilla/5.0 (Macintosh; Intel Mac OS X 10_11_4) AppleWebKit/537.36 (KHTML, like Gecko) Chrome/49.0.2623.110 Safari/537.36\r\n
    Referer: http://ssdeep.sourceforge.net/\r\n
    Accept-Encoding: gzip, deflate, sdch\r\n
    Accept-Language: en-US,en;q=0.8\r\n
     [truncated]Cookie: __gads=ID=93e068a81ce637b1:T=1461107512:S=ALNI_MY0CeVOyUgju6rMPCcS38tllMzlHw; _pk_ref.39.0d7e=%5B%22%22%2C%22%22%2C1461129320%2C%22http%3A%2F%2Fssdeep.sourceforge.net%2F%22%5D; VISITOR=5716bb35b6cbcd3922bad468; _ga=GA1.
    If-Modified-Since: Thu, 05 Mar 2015 21:23:16 GMT\r\n
    \r\n
    [Full request URI: http://sourceforge.net/sflogo.php?group_id=156390&type=2]
    [HTTP request 1/1]
    [Response in frame: 134]

Python script: scapy2b.py

input file: inpartb.txt

scapy results:
dyn-160-39-225-111:security_PA3 megskrypek$ python scapy2b.py 
WARNING: No route found for IPv6 destination :: (no default route?)
###[ IP ]###
  version   = 4
  ihl       = None
  tos       = 0x0
  len       = None
  id        = 1
  flags     = 
  frag      = 0
  ttl       = 64
  proto     = tcp
  chksum    = None
  src       = 192.168.1.102
  dst       = 192.168.1.116
  \options   \
###[ TCP ]###
     sport     = 65206
     dport     = http
     seq       = 0
     ack       = 0
     dataofs   = None
     reserved  = 0
     flags     = S
     window    = 8192
     chksum    = None
     urgptr    = 0
     options   = {}
###[ Raw ]###
        load      = 'GET /sflogo.php?group_id=156390&type=2 HTTP/1.1\\r\\n'
Begin emission:
..Finished to send 1 packets.
..*
Received 5 packets, got 1 answers, remaining 0 packets

tcpdump results:
19:51:55.258627 IP (tos 0x0, ttl 64, id 1, offset 0, flags [none], proto TCP (6), length 91)
    192.168.1.102.65206 > 192.168.1.116.http: Flags [S], cksum 0x6bc4 (correct), seq 0:51, win 8192, length 51
	0x0000:  0800 2702 9a1d 28cf daeb fb30 0800 4500  ..'...(....0..E.
	0x0010:  005b 0001 0000 4006 f671 c0a8 0166 c0a8  .[....@..q...f..
	0x0020:  0174 feb6 0050 0000 0000 0000 0000 5002  .t...P........P.
	0x0030:  2000 6bc4 0000 4745 5420 2f73 666c 6f67  ..k...GET./sflog
	0x0040:  6f2e 7068 703f 6772 6f75 705f 6964 3d31  o.php?group_id=1
	0x0050:  3536 3339 3026 7479 7065 3d32 2048 5454  56390&type=2.HTT
	0x0060:  502f 312e 315c 725c 6e                   P/1.1\r\n

19:51:55.258672 IP (tos 0xc0, ttl 64, id 37120, offset 0, flags [none], proto ICMP (1), length 119)
    192.168.1.116 > 192.168.1.102: ICMP host 192.168.1.116 unreachable - admin prohibited, length 99
	IP (tos 0x0, ttl 64, id 1, offset 0, flags [none], proto TCP (6), length 91)
    192.168.1.102.65206 > 192.168.1.116.http: Flags [S], cksum 0x6bc4 (correct), seq 0:51, win 8192, length 51
	0x0000:  28cf daeb fb30 0800 2702 9a1d 0800 45c0  (....0..'.....E.
	0x0010:  0077 9100 0000 4001 649b c0a8 0174 c0a8  .w....@.d....t..
	0x0020:  0166 030a 816e 0000 0000 4500 005b 0001  .f...n....E..[..
	0x0030:  0000 4006 f671 c0a8 0166 c0a8 0174 feb6  ..@..q...f...t..
	0x0040:  0050 0000 0000 0000 0000 5002 2000 6bc4  .P........P...k.
	0x0050:  0000 4745 5420 2f73 666c 6f67 6f2e 7068  ..GET./sflogo.ph
	0x0060:  703f 6772 6f75 705f 6964 3d31 3536 3339  p?group_id=15639
	0x0070:  3026 7479 7065 3d32 2048 5454 502f 312e  0&type=2.HTTP/1.
	0x0080:  315c 725c 6e                             1\r\n


c.
python script: scapy2c.py
